{
  "_format": "hh-sol-artifact-1",
  "contractName": "AddressBook",
  "sourceName": "contracts/AddressBook.sol",
  "abi": [
    {
      "anonymous": false,
      "inputs": [
        {
          "indexed": true,
          "internalType": "address",
          "name": "walletAddress",
          "type": "address"
        },
        {
          "indexed": false,
          "internalType": "string",
          "name": "name",
          "type": "string"
        },
        {
          "indexed": false,
          "internalType": "string",
          "name": "pictureURL",
          "type": "string"
        }
      ],
      "name": "NewPersonAdded",
      "type": "event"
    },
    {
      "inputs": [
        {
          "internalType": "string",
          "name": "_name",
          "type": "string"
        },
        {
          "internalType": "uint256",
          "name": "_phoneNumber",
          "type": "uint256"
        },
        {
          "internalType": "string",
          "name": "_email",
          "type": "string"
        },
        {
          "internalType": "string",
          "name": "_password",
          "type": "string"
        },
        {
          "internalType": "string",
          "name": "_pictureURL",
          "type": "string"
        }
      ],
      "name": "addPerson",
      "outputs": [],
      "stateMutability": "nonpayable",
      "type": "function"
    },
    {
      "inputs": [
        {
          "internalType": "string",
          "name": "_password",
          "type": "string"
        },
        {
          "internalType": "uint8",
          "name": "_accessLevel",
          "type": "uint8"
        }
      ],
      "name": "getPersonDetails",
      "outputs": [
        {
          "internalType": "string",
          "name": "name",
          "type": "string"
        },
        {
          "internalType": "string",
          "name": "pictureURL",
          "type": "string"
        },
        {
          "internalType": "string",
          "name": "email",
          "type": "string"
        },
        {
          "internalType": "uint256",
          "name": "phoneNumber",
          "type": "uint256"
        }
      ],
      "stateMutability": "view",
      "type": "function"
    }
  ],
  "bytecode": "0x608060405234801561001057600080fd5b50611112806100206000396000f3fe608060405234801561001057600080fd5b50600436106100365760003560e01c8063419d4a841461003b57806364edf74b14610057575b600080fd5b61005560048036038101906100509190610818565b61008a565b005b610071600480360381019061006c919061093c565b610306565b6040516100819493929190610a26565b60405180910390f35b600033905060008651116100d3576040517f08c379a00000000000000000000000000000000000000000000000000000000081526004016100ca90610acc565b60405180910390fd5b60008511610116576040517f08c379a000000000000000000000000000000000000000000000000000000000815260040161010d90610b38565b60405180910390fd5b600084511161015a576040517f08c379a000000000000000000000000000000000000000000000000000000000815260040161015190610ba4565b60405180910390fd5b600083511161019e576040517f08c379a000000000000000000000000000000000000000000000000000000000815260040161019590610c10565b60405180910390fd5b60008251116101e2576040517f08c379a00000000000000000000000000000000000000000000000000000000081526004016101d990610c7c565b60405180910390fd5b60006101ed84610658565b90506040518060a00160405280888152602001878152602001868152602001828152602001848152506000808473ffffffffffffffffffffffffffffffffffffffff1673ffffffffffffffffffffffffffffffffffffffff16815260200190815260200160002060008201518160000190816102699190610ea8565b506020820151816001015560408201518160020190816102899190610ea8565b506060820151816003015560808201518160040190816102a99190610ea8565b509050508173ffffffffffffffffffffffffffffffffffffffff167fc9c058a98b4cbdc9da9c499d43852be8a279cfd9e6e494f09da4f62aa3ed10e388856040516102f5929190610f7a565b60405180910390a250505050505050565b6060806060600060018560ff1610158015610325575060038560ff1611155b610364576040517f08c379a000000000000000000000000000000000000000000000000000000000815260040161035b90610ffd565b60405180910390fd5b60008060003373ffffffffffffffffffffffffffffffffffffffff1673ffffffffffffffffffffffffffffffffffffffff1681526020019081526020016000206040518060a00160405290816000820180546103bf90610ccb565b80601f01602080910402602001604051908101604052809291908181526020018280546103eb90610ccb565b80156104385780601f1061040d57610100808354040283529160200191610438565b820191906000526020600020905b81548152906001019060200180831161041b57829003601f168201915b505050505081526020016001820154815260200160028201805461045b90610ccb565b80601f016020809104026020016040519081016040528092919081815260200182805461048790610ccb565b80156104d45780601f106104a9576101008083540402835291602001916104d4565b820191906000526020600020905b8154815290600101906020018083116104b757829003601f168201915b50505050508152602001600382015481526020016004820180546104f790610ccb565b80601f016020809104026020016040519081016040528092919081815260200182805461052390610ccb565b80156105705780601f1061054557610100808354040283529160200191610570565b820191906000526020600020905b81548152906001019060200180831161055357829003601f168201915b5050505050815250509050600061058688610658565b9050808260600151146105ce576040517f08c379a00000000000000000000000000000000000000000000000000000000081526004016105c590611069565b60405180910390fd5b60018760ff16036106055781600001518260800151600060405180602001604052806000815250909550955095509550505061064f565b60028760ff16036106305781600001518260800151836040015160009550955095509550505061064f565b8160000151826080015183604001518460200151955095509550955050505b92959194509250565b60008160405160200161066b91906110c5565b604051602081830303815290604052805190602001209050919050565b6000604051905090565b600080fd5b600080fd5b600080fd5b600080fd5b6000601f19601f8301169050919050565b7f4e487b7100000000000000000000000000000000000000000000000000000000600052604160045260246000fd5b6106ef826106a6565b810181811067ffffffffffffffff8211171561070e5761070d6106b7565b5b80604052505050565b6000610721610688565b905061072d82826106e6565b919050565b600067ffffffffffffffff82111561074d5761074c6106b7565b5b610756826106a6565b9050602081019050919050565b82818337600083830152505050565b600061078561078084610732565b610717565b9050828152602081018484840111156107a1576107a06106a1565b5b6107ac848285610763565b509392505050565b600082601f8301126107c9576107c861069c565b5b81356107d9848260208601610772565b91505092915050565b6000819050919050565b6107f5816107e2565b811461080057600080fd5b50565b600081359050610812816107ec565b92915050565b600080600080600060a0868803121561083457610833610692565b5b600086013567ffffffffffffffff81111561085257610851610697565b5b61085e888289016107b4565b955050602061086f88828901610803565b945050604086013567ffffffffffffffff8111156108905761088f610697565b5b61089c888289016107b4565b935050606086013567ffffffffffffffff8111156108bd576108bc610697565b5b6108c9888289016107b4565b925050608086013567ffffffffffffffff8111156108ea576108e9610697565b5b6108f6888289016107b4565b9150509295509295909350565b600060ff82169050919050565b61091981610903565b811461092457600080fd5b50565b60008135905061093681610910565b92915050565b6000806040838503121561095357610952610692565b5b600083013567ffffffffffffffff81111561097157610970610697565b5b61097d858286016107b4565b925050602061098e85828601610927565b9150509250929050565b600081519050919050565b600082825260208201905092915050565b60005b838110156109d25780820151818401526020810190506109b7565b60008484015250505050565b60006109e982610998565b6109f381856109a3565b9350610a038185602086016109b4565b610a0c816106a6565b840191505092915050565b610a20816107e2565b82525050565b60006080820190508181036000830152610a4081876109de565b90508181036020830152610a5481866109de565b90508181036040830152610a6881856109de565b9050610a776060830184610a17565b95945050505050565b7f4e616d65206d757374206e6f7420626520656d70747900000000000000000000600082015250565b6000610ab66016836109a3565b9150610ac182610a80565b602082019050919050565b60006020820190508181036000830152610ae581610aa9565b9050919050565b7f50686f6e65206e756d626572206d7573742062652076616c6964000000000000600082015250565b6000610b22601a836109a3565b9150610b2d82610aec565b602082019050919050565b60006020820190508181036000830152610b5181610b15565b9050919050565b7f456d61696c206d757374206e6f7420626520656d707479000000000000000000600082015250565b6000610b8e6017836109a3565b9150610b9982610b58565b602082019050919050565b60006020820190508181036000830152610bbd81610b81565b9050919050565b7f50617373776f7264206d757374206e6f7420626520656d707479000000000000600082015250565b6000610bfa601a836109a3565b9150610c0582610bc4565b602082019050919050565b60006020820190508181036000830152610c2981610bed565b9050919050565b7f506963747572652055524c206d757374206e6f7420626520656d707479000000600082015250565b6000610c66601d836109a3565b9150610c7182610c30565b602082019050919050565b60006020820190508181036000830152610c9581610c59565b9050919050565b7f4e487b7100000000000000000000000000000000000000000000000000000000600052602260045260246000fd5b60006002820490506001821680610ce357607f821691505b602082108103610cf657610cf5610c9c565b5b50919050565b60008190508160005260206000209050919050565b60006020601f8301049050919050565b600082821b905092915050565b600060088302610d5e7fffffffffffffffffffffffffffffffffffffffffffffffffffffffffffffffff82610d21565b610d688683610d21565b95508019841693508086168417925050509392505050565b6000819050919050565b6000610da5610da0610d9b846107e2565b610d80565b6107e2565b9050919050565b6000819050919050565b610dbf83610d8a565b610dd3610dcb82610dac565b848454610d2e565b825550505050565b600090565b610de8610ddb565b610df3818484610db6565b505050565b5b81811015610e1757610e0c600082610de0565b600181019050610df9565b5050565b601f821115610e5c57610e2d81610cfc565b610e3684610d11565b81016020851015610e45578190505b610e59610e5185610d11565b830182610df8565b50505b505050565b600082821c905092915050565b6000610e7f60001984600802610e61565b1980831691505092915050565b6000610e988383610e6e565b9150826002028217905092915050565b610eb182610998565b67ffffffffffffffff811115610eca57610ec96106b7565b5b610ed48254610ccb565b610edf828285610e1b565b600060209050601f831160018114610f125760008415610f00578287015190505b610f0a8582610e8c565b865550610f72565b601f198416610f2086610cfc565b60005b82811015610f4857848901518255600182019150602085019450602081019050610f23565b86831015610f655784890151610f61601f891682610e6e565b8355505b6001600288020188555050505b505050505050565b60006040820190508181036000830152610f9481856109de565b90508181036020830152610fa881846109de565b90509392505050565b7f496e76616c696420616363657373206c6576656c000000000000000000000000600082015250565b6000610fe76014836109a3565b9150610ff282610fb1565b602082019050919050565b6000602082019050818103600083015261101681610fda565b9050919050565b7f496e636f72726563742070617373776f72640000000000000000000000000000600082015250565b60006110536012836109a3565b915061105e8261101d565b602082019050919050565b6000602082019050818103600083015261108281611046565b9050919050565b600081905092915050565b600061109f82610998565b6110a98185611089565b93506110b98185602086016109b4565b80840191505092915050565b60006110d18284611094565b91508190509291505056fea2646970667358221220fd9c0c23416e7a9512532bc0c83f49c0b15cf46d1d9d82a90b5e57d91c4161dc64736f6c63430008180033",
  "linkReferences": {},
  "deployedLinkReferences": {}
}